{
  "contractName": "CarFactory",
  "abi": [
    {
      "inputs": [],
      "stateMutability": "nonpayable",
      "type": "constructor"
    },
    {
      "anonymous": false,
      "inputs": [
        {
          "indexed": true,
          "internalType": "address",
          "name": "owner",
          "type": "address"
        },
        {
          "indexed": true,
          "internalType": "address",
          "name": "approved",
          "type": "address"
        },
        {
          "indexed": true,
          "internalType": "uint256",
          "name": "tokenId",
          "type": "uint256"
        }
      ],
      "name": "Approval",
      "type": "event"
    },
    {
      "anonymous": false,
      "inputs": [
        {
          "indexed": true,
          "internalType": "address",
          "name": "owner",
          "type": "address"
        },
        {
          "indexed": true,
          "internalType": "address",
          "name": "operator",
          "type": "address"
        },
        {
          "indexed": false,
          "internalType": "bool",
          "name": "approved",
          "type": "bool"
        }
      ],
      "name": "ApprovalForAll",
      "type": "event"
    },
    {
      "anonymous": false,
      "inputs": [
        {
          "indexed": false,
          "internalType": "uint256",
          "name": "_fromTokenId",
          "type": "uint256"
        },
        {
          "indexed": false,
          "internalType": "uint256",
          "name": "_toTokenId",
          "type": "uint256"
        }
      ],
      "name": "BatchMetadataUpdate",
      "type": "event"
    },
    {
      "anonymous": false,
      "inputs": [
        {
          "indexed": false,
          "internalType": "string",
          "name": "vin",
          "type": "string"
        },
        {
          "indexed": false,
          "internalType": "address",
          "name": "seller",
          "type": "address"
        },
        {
          "indexed": false,
          "internalType": "address",
          "name": "buyer",
          "type": "address"
        },
        {
          "indexed": false,
          "internalType": "uint256",
          "name": "priceInETH",
          "type": "uint256"
        }
      ],
      "name": "CarBought",
      "type": "event"
    },
    {
      "anonymous": false,
      "inputs": [
        {
          "indexed": false,
          "internalType": "string",
          "name": "vin",
          "type": "string"
        },
        {
          "indexed": false,
          "internalType": "string",
          "name": "model",
          "type": "string"
        },
        {
          "indexed": false,
          "internalType": "string",
          "name": "manufacturer",
          "type": "string"
        },
        {
          "indexed": false,
          "internalType": "address",
          "name": "owner",
          "type": "address"
        }
      ],
      "name": "CarCreated",
      "type": "event"
    },
    {
      "anonymous": false,
      "inputs": [
        {
          "indexed": false,
          "internalType": "uint256",
          "name": "_tokenId",
          "type": "uint256"
        }
      ],
      "name": "MetadataUpdate",
      "type": "event"
    },
    {
      "anonymous": false,
      "inputs": [
        {
          "indexed": true,
          "internalType": "address",
          "name": "previousOwner",
          "type": "address"
        },
        {
          "indexed": true,
          "internalType": "address",
          "name": "newOwner",
          "type": "address"
        }
      ],
      "name": "OwnershipTransferred",
      "type": "event"
    },
    {
      "anonymous": false,
      "inputs": [
        {
          "indexed": true,
          "internalType": "address",
          "name": "from",
          "type": "address"
        },
        {
          "indexed": true,
          "internalType": "address",
          "name": "to",
          "type": "address"
        },
        {
          "indexed": true,
          "internalType": "uint256",
          "name": "tokenId",
          "type": "uint256"
        }
      ],
      "name": "Transfer",
      "type": "event"
    },
    {
      "inputs": [
        {
          "internalType": "uint256",
          "name": "",
          "type": "uint256"
        }
      ],
      "name": "allCarVINs",
      "outputs": [
        {
          "internalType": "string",
          "name": "",
          "type": "string"
        }
      ],
      "stateMutability": "view",
      "type": "function",
      "constant": true
    },
    {
      "inputs": [
        {
          "internalType": "address",
          "name": "to",
          "type": "address"
        },
        {
          "internalType": "uint256",
          "name": "tokenId",
          "type": "uint256"
        }
      ],
      "name": "approve",
      "outputs": [],
      "stateMutability": "nonpayable",
      "type": "function"
    },
    {
      "inputs": [
        {
          "internalType": "address",
          "name": "owner",
          "type": "address"
        }
      ],
      "name": "balanceOf",
      "outputs": [
        {
          "internalType": "uint256",
          "name": "",
          "type": "uint256"
        }
      ],
      "stateMutability": "view",
      "type": "function",
      "constant": true
    },
    {
      "inputs": [
        {
          "internalType": "string",
          "name": "",
          "type": "string"
        }
      ],
      "name": "cars",
      "outputs": [
        {
          "internalType": "string",
          "name": "vin",
          "type": "string"
        },
        {
          "internalType": "string",
          "name": "model",
          "type": "string"
        },
        {
          "internalType": "uint256",
          "name": "price",
          "type": "uint256"
        }
      ],
      "stateMutability": "view",
      "type": "function",
      "constant": true
    },
    {
      "inputs": [],
      "name": "deployer",
      "outputs": [
        {
          "internalType": "address",
          "name": "",
          "type": "address"
        }
      ],
      "stateMutability": "view",
      "type": "function",
      "constant": true
    },
    {
      "inputs": [
        {
          "internalType": "uint256",
          "name": "tokenId",
          "type": "uint256"
        }
      ],
      "name": "getApproved",
      "outputs": [
        {
          "internalType": "address",
          "name": "",
          "type": "address"
        }
      ],
      "stateMutability": "view",
      "type": "function",
      "constant": true
    },
    {
      "inputs": [
        {
          "internalType": "address",
          "name": "owner",
          "type": "address"
        },
        {
          "internalType": "address",
          "name": "operator",
          "type": "address"
        }
      ],
      "name": "isApprovedForAll",
      "outputs": [
        {
          "internalType": "bool",
          "name": "",
          "type": "bool"
        }
      ],
      "stateMutability": "view",
      "type": "function",
      "constant": true
    },
    {
      "inputs": [],
      "name": "name",
      "outputs": [
        {
          "internalType": "string",
          "name": "",
          "type": "string"
        }
      ],
      "stateMutability": "view",
      "type": "function",
      "constant": true
    },
    {
      "inputs": [],
      "name": "owner",
      "outputs": [
        {
          "internalType": "address",
          "name": "",
          "type": "address"
        }
      ],
      "stateMutability": "view",
      "type": "function",
      "constant": true
    },
    {
      "inputs": [
        {
          "internalType": "uint256",
          "name": "tokenId",
          "type": "uint256"
        }
      ],
      "name": "ownerOf",
      "outputs": [
        {
          "internalType": "address",
          "name": "",
          "type": "address"
        }
      ],
      "stateMutability": "view",
      "type": "function",
      "constant": true
    },
    {
      "inputs": [],
      "name": "renounceOwnership",
      "outputs": [],
      "stateMutability": "nonpayable",
      "type": "function"
    },
    {
      "inputs": [
        {
          "internalType": "address",
          "name": "from",
          "type": "address"
        },
        {
          "internalType": "address",
          "name": "to",
          "type": "address"
        },
        {
          "internalType": "uint256",
          "name": "tokenId",
          "type": "uint256"
        }
      ],
      "name": "safeTransferFrom",
      "outputs": [],
      "stateMutability": "nonpayable",
      "type": "function"
    },
    {
      "inputs": [
        {
          "internalType": "address",
          "name": "from",
          "type": "address"
        },
        {
          "internalType": "address",
          "name": "to",
          "type": "address"
        },
        {
          "internalType": "uint256",
          "name": "tokenId",
          "type": "uint256"
        },
        {
          "internalType": "bytes",
          "name": "data",
          "type": "bytes"
        }
      ],
      "name": "safeTransferFrom",
      "outputs": [],
      "stateMutability": "nonpayable",
      "type": "function"
    },
    {
      "inputs": [
        {
          "internalType": "address",
          "name": "operator",
          "type": "address"
        },
        {
          "internalType": "bool",
          "name": "approved",
          "type": "bool"
        }
      ],
      "name": "setApprovalForAll",
      "outputs": [],
      "stateMutability": "nonpayable",
      "type": "function"
    },
    {
      "inputs": [
        {
          "internalType": "bytes4",
          "name": "interfaceId",
          "type": "bytes4"
        }
      ],
      "name": "supportsInterface",
      "outputs": [
        {
          "internalType": "bool",
          "name": "",
          "type": "bool"
        }
      ],
      "stateMutability": "view",
      "type": "function",
      "constant": true
    },
    {
      "inputs": [],
      "name": "symbol",
      "outputs": [
        {
          "internalType": "string",
          "name": "",
          "type": "string"
        }
      ],
      "stateMutability": "view",
      "type": "function",
      "constant": true
    },
    {
      "inputs": [
        {
          "internalType": "uint256",
          "name": "tokenId",
          "type": "uint256"
        }
      ],
      "name": "tokenURI",
      "outputs": [
        {
          "internalType": "string",
          "name": "",
          "type": "string"
        }
      ],
      "stateMutability": "view",
      "type": "function",
      "constant": true
    },
    {
      "inputs": [
        {
          "internalType": "address",
          "name": "from",
          "type": "address"
        },
        {
          "internalType": "address",
          "name": "to",
          "type": "address"
        },
        {
          "internalType": "uint256",
          "name": "tokenId",
          "type": "uint256"
        }
      ],
      "name": "transferFrom",
      "outputs": [],
      "stateMutability": "nonpayable",
      "type": "function"
    },
    {
      "inputs": [
        {
          "internalType": "address",
          "name": "newOwner",
          "type": "address"
        }
      ],
      "name": "transferOwnership",
      "outputs": [],
      "stateMutability": "nonpayable",
      "type": "function"
    },
    {
      "inputs": [
        {
          "internalType": "string",
          "name": "",
          "type": "string"
        }
      ],
      "name": "vinExists",
      "outputs": [
        {
          "internalType": "bool",
          "name": "",
          "type": "bool"
        }
      ],
      "stateMutability": "view",
      "type": "function",
      "constant": true
    },
    {
      "inputs": [
        {
          "internalType": "string",
          "name": "_vin",
          "type": "string"
        },
        {
          "internalType": "string",
          "name": "_model",
          "type": "string"
        },
        {
          "internalType": "address",
          "name": "_owner",
          "type": "address"
        },
        {
          "internalType": "string",
          "name": "_tokenURI",
          "type": "string"
        },
        {
          "internalType": "uint256",
          "name": "_price",
          "type": "uint256"
        }
      ],
      "name": "createCar",
      "outputs": [],
      "stateMutability": "nonpayable",
      "type": "function"
    },
    {
      "inputs": [
        {
          "internalType": "string",
          "name": "_vin",
          "type": "string"
        }
      ],
      "name": "buyCar",
      "outputs": [],
      "stateMutability": "payable",
      "type": "function",
      "payable": true
    },
    {
      "inputs": [
        {
          "internalType": "string",
          "name": "_vin",
          "type": "string"
        }
      ],
      "name": "getCarDetails",
      "outputs": [
        {
          "internalType": "string",
          "name": "",
          "type": "string"
        },
        {
          "internalType": "string",
          "name": "",
          "type": "string"
        },
        {
          "internalType": "address",
          "name": "",
          "type": "address"
        },
        {
          "internalType": "string",
          "name": "",
          "type": "string"
        },
        {
          "internalType": "uint256",
          "name": "",
          "type": "uint256"
        }
      ],
      "stateMutability": "view",
      "type": "function",
      "constant": true
    },
    {
      "inputs": [],
      "name": "getAllCars",
      "outputs": [
        {
          "internalType": "string[]",
          "name": "",
          "type": "string[]"
        }
      ],
      "stateMutability": "view",
      "type": "function",
      "constant": true
    },
    {
      "inputs": [
        {
          "internalType": "string",
          "name": "_vin",
          "type": "string"
        }
      ],
      "name": "getOwnershipHistory",
      "outputs": [
        {
          "internalType": "address[]",
          "name": "",
          "type": "address[]"
        }
      ],
      "stateMutability": "view",
      "type": "function",
      "constant": true
    }
  ],
  "bytecode": "0x60806040523480156200001157600080fd5b506040518060400160405280600681526020017f4361724e465400000000000000000000000000000000000000000000000000008152506040518060400160405280600481526020017f434e465400000000000000000000000000000000000000000000000000000000815250816000908051906020019062000096929190620001e7565b508060019080519060200190620000af929190620001e7565b505050620000d2620000c66200011960201b60201c565b6200012160201b60201c565b33600b60006101000a81548173ffffffffffffffffffffffffffffffffffffffff021916908373ffffffffffffffffffffffffffffffffffffffff160217905550620002fc565b600033905090565b6000600760009054906101000a900473ffffffffffffffffffffffffffffffffffffffff16905081600760006101000a81548173ffffffffffffffffffffffffffffffffffffffff021916908373ffffffffffffffffffffffffffffffffffffffff1602179055508173ffffffffffffffffffffffffffffffffffffffff168173ffffffffffffffffffffffffffffffffffffffff167f8be0079c531659141344cd1fd0a4f28419497f9722a3daafe3b4186f6b6457e060405160405180910390a35050565b828054620001f59062000297565b90600052602060002090601f01602090048101928262000219576000855562000265565b82601f106200023457805160ff191683800117855562000265565b8280016001018555821562000265579182015b828111156200026457825182559160200191906001019062000247565b5b50905062000274919062000278565b5090565b5b808211156200029357600081600090555060010162000279565b5090565b60006002820490506001821680620002b057607f821691505b60208210811415620002c757620002c6620002cd565b5b50919050565b7f4e487b7100000000000000000000000000000000000000000000000000000000600052602260045260246000fd5b6143dc806200030c6000396000f3fe6080604052600436106101655760003560e01c8063715018a6116100d1578063b88d4fde1161008a578063d872acac11610064578063d872acac14610554578063dfda7c3414610595578063e985e9c5146105d2578063f2fde38b1461060f57610165565b8063b88d4fde146104c3578063c87b56dd146104ec578063d5f394881461052957610165565b8063715018a6146103c55780638b011c89146103dc5780638da5cb5b1461041957806395d89b4114610444578063a22cb4651461046f578063abfe5d571461049857610165565b80632642eabf116101235780632642eabf1461029e57806341a2d180146102ba57806342842e0e146102f957806344594eb9146103225780636352211e1461034b57806370a082311461038857610165565b8062c966be1461016a57806301ffc9a7146101a757806306fdde03146101e4578063081812fc1461020f578063095ea7b31461024c57806323b872dd14610275575b600080fd5b34801561017657600080fd5b50610191600480360381019061018c919061305d565b610638565b60405161019e91906136d8565b60405180910390f35b3480156101b357600080fd5b506101ce60048036038101906101c9919061300b565b610752565b6040516101db919061371c565b60405180910390f35b3480156101f057600080fd5b506101f96107b3565b6040516102069190613737565b60405180910390f35b34801561021b57600080fd5b506102366004803603810190610231919061315d565b610845565b6040516102439190613671565b60405180910390f35b34801561025857600080fd5b50610273600480360381019061026e9190612fcf565b61088b565b005b34801561028157600080fd5b5061029c60048036038101906102979190612ec9565b6109a3565b005b6102b860048036038101906102b3919061305d565b610a03565b005b3480156102c657600080fd5b506102e160048036038101906102dc919061305d565b610c63565b6040516102f093929190613865565b60405180910390f35b34801561030557600080fd5b50610320600480360381019061031b9190612ec9565b610db3565b005b34801561032e57600080fd5b506103496004803603810190610344919061309e565b610dd3565b005b34801561035757600080fd5b50610372600480360381019061036d919061315d565b6110c4565b60405161037f9190613671565b60405180910390f35b34801561039457600080fd5b506103af60048036038101906103aa9190612e64565b61114b565b6040516103bc9190613aea565b60405180910390f35b3480156103d157600080fd5b506103da611203565b005b3480156103e857600080fd5b5061040360048036038101906103fe919061315d565b611217565b6040516104109190613737565b60405180910390f35b34801561042557600080fd5b5061042e6112c3565b60405161043b9190613671565b60405180910390f35b34801561045057600080fd5b506104596112ed565b6040516104669190613737565b60405180910390f35b34801561047b57600080fd5b5061049660048036038101906104919190612f93565b61137f565b005b3480156104a457600080fd5b506104ad611395565b6040516104ba91906136fa565b60405180910390f35b3480156104cf57600080fd5b506104ea60048036038101906104e59190612f18565b61146e565b005b3480156104f857600080fd5b50610513600480360381019061050e919061315d565b6114d0565b6040516105209190613737565b60405180910390f35b34801561053557600080fd5b5061053e6115e3565b60405161054b9190613671565b60405180910390f35b34801561056057600080fd5b5061057b6004803603810190610576919061305d565b611609565b60405161058c9594939291906137a5565b60405180910390f35b3480156105a157600080fd5b506105bc60048036038101906105b7919061305d565b6118d5565b6040516105c9919061371c565b60405180910390f35b3480156105de57600080fd5b506105f960048036038101906105f49190612e8d565b61190b565b604051610606919061371c565b60405180910390f35b34801561061b57600080fd5b5061063660048036038101906106319190612e64565b61199f565b005b606060098260405161064a9190613636565b908152602001604051809103902060009054906101000a900460ff166106a5576040517f08c379a000000000000000000000000000000000000000000000000000000000815260040161069c906138ca565b60405180910390fd5b6008826040516106b59190613636565b908152602001604051809103902060030180548060200260200160405190810160405280929190818152602001828054801561074657602002820191906000526020600020905b8160009054906101000a900473ffffffffffffffffffffffffffffffffffffffff1673ffffffffffffffffffffffffffffffffffffffff16815260200190600101908083116106fc575b50505050509050919050565b6000634906490660e01b7bffffffffffffffffffffffffffffffffffffffffffffffffffffffff1916827bffffffffffffffffffffffffffffffffffffffffffffffffffffffff191614806107ac57506107ab82611a23565b5b9050919050565b6060600080546107c290613d93565b80601f01602080910402602001604051908101604052809291908181526020018280546107ee90613d93565b801561083b5780601f106108105761010080835404028352916020019161083b565b820191906000526020600020905b81548152906001019060200180831161081e57829003601f168201915b5050505050905090565b600061085082611b05565b6004600083815260200190815260200160002060009054906101000a900473ffffffffffffffffffffffffffffffffffffffff169050919050565b6000610896826110c4565b90508073ffffffffffffffffffffffffffffffffffffffff168373ffffffffffffffffffffffffffffffffffffffff161415610907576040517f08c379a00000000000000000000000000000000000000000000000000000000081526004016108fe90613aaa565b60405180910390fd5b8073ffffffffffffffffffffffffffffffffffffffff16610926611b50565b73ffffffffffffffffffffffffffffffffffffffff16148061095557506109548161094f611b50565b61190b565b5b610994576040517f08c379a000000000000000000000000000000000000000000000000000000000815260040161098b90613aca565b60405180910390fd5b61099e8383611b58565b505050565b6109b46109ae611b50565b82611c11565b6109f3576040517f08c379a00000000000000000000000000000000000000000000000000000000081526004016109ea906138aa565b60405180910390fd5b6109fe838383611ca6565b505050565b600081604051602001610a169190613636565b6040516020818303038152906040528051906020012060001c90503373ffffffffffffffffffffffffffffffffffffffff16610a51826110c4565b73ffffffffffffffffffffffffffffffffffffffff161415610aa8576040517f08c379a0000000000000000000000000000000000000000000000000000000008152600401610a9f906139aa565b60405180910390fd5b600063caa7e20090506000600884604051610ac39190613636565b9081526020016040518091039020600201549050600082670de0b6b3a764000083610aee9190613c83565b610af89190613c52565b905080341015610b3d576040517f08c379a0000000000000000000000000000000000000000000000000000000008152600401610b3490613a4a565b60405180910390fd5b6000610b48856110c4565b9050610b55813387611ca6565b8073ffffffffffffffffffffffffffffffffffffffff166108fc839081150290604051600060405180830381858888f19350505050158015610b9b573d6000803e3d6000fd5b50600886604051610bac9190613636565b9081526020016040518091039020600301339080600181540180825580915050600190039060005260206000200160009091909190916101000a81548173ffffffffffffffffffffffffffffffffffffffff021916908373ffffffffffffffffffffffffffffffffffffffff1602179055507f89b79a169cc3cbdb8707afa0bee0b5576ee95602da8680af686a344bbd10563186823385604051610c539493929190613759565b60405180910390a1505050505050565b600881805160208101820180518482526020830160208501208183528095505050505050600091509050806000018054610c9c90613d93565b80601f0160208091040260200160405190810160405280929190818152602001828054610cc890613d93565b8015610d155780601f10610cea57610100808354040283529160200191610d15565b820191906000526020600020905b815481529060010190602001808311610cf857829003601f168201915b505050505090806001018054610d2a90613d93565b80601f0160208091040260200160405190810160405280929190818152602001828054610d5690613d93565b8015610da35780601f10610d7857610100808354040283529160200191610da3565b820191906000526020600020905b815481529060010190602001808311610d8657829003601f168201915b5050505050908060020154905083565b610dce8383836040518060200160405280600081525061146e565b505050565b600985604051610de39190613636565b908152602001604051809103902060009054906101000a900460ff1615610e3f576040517f08c379a0000000000000000000000000000000000000000000000000000000008152600401610e3690613a8a565b60405180910390fd5b6000600167ffffffffffffffff811115610e82577f4e487b7100000000000000000000000000000000000000000000000000000000600052604160045260246000fd5b604051908082528060200260200182016040528015610eb05781602001602082028036833780820191505090505b5090508381600081518110610eee577f4e487b7100000000000000000000000000000000000000000000000000000000600052603260045260246000fd5b602002602001019073ffffffffffffffffffffffffffffffffffffffff16908173ffffffffffffffffffffffffffffffffffffffff1681525050604051806080016040528087815260200186815260200183815260200182815250600887604051610f599190613636565b90815260200160405180910390206000820151816000019080519060200190610f83929190612bfe565b506020820151816001019080519060200190610fa0929190612bfe565b50604082015181600201556060820151816003019080519060200190610fc7929190612c84565b509050506001600987604051610fdd9190613636565b908152602001604051809103902060006101000a81548160ff021916908315150217905550600a8690806001815401808255809150506001900390600052602060002001600090919091909150908051906020019061103d929190612bfe565b506000866040516020016110519190613636565b6040516020818303038152906040528051906020012060001c90506110768582611fa0565b61108081856121be565b7f4adccc182e773952ee01ce92ecbc3def660035b0d06428c379fdecd668c1ac888787876040516110b39392919061380d565b60405180910390a150505050505050565b6000806110d083612269565b9050600073ffffffffffffffffffffffffffffffffffffffff168173ffffffffffffffffffffffffffffffffffffffff161415611142576040517f08c379a000000000000000000000000000000000000000000000000000000000815260040161113990613a6a565b60405180910390fd5b80915050919050565b60008073ffffffffffffffffffffffffffffffffffffffff168273ffffffffffffffffffffffffffffffffffffffff1614156111bc576040517f08c379a00000000000000000000000000000000000000000000000000000000081526004016111b3906139ca565b60405180910390fd5b600360008373ffffffffffffffffffffffffffffffffffffffff1673ffffffffffffffffffffffffffffffffffffffff168152602001908152602001600020549050919050565b61120b6122a6565b6112156000612324565b565b600a818154811061122757600080fd5b90600052602060002001600091509050805461124290613d93565b80601f016020809104026020016040519081016040528092919081815260200182805461126e90613d93565b80156112bb5780601f10611290576101008083540402835291602001916112bb565b820191906000526020600020905b81548152906001019060200180831161129e57829003601f168201915b505050505081565b6000600760009054906101000a900473ffffffffffffffffffffffffffffffffffffffff16905090565b6060600180546112fc90613d93565b80601f016020809104026020016040519081016040528092919081815260200182805461132890613d93565b80156113755780601f1061134a57610100808354040283529160200191611375565b820191906000526020600020905b81548152906001019060200180831161135857829003601f168201915b5050505050905090565b61139161138a611b50565b83836123ea565b5050565b6060600a805480602002602001604051908101604052809291908181526020016000905b828210156114655783829060005260206000200180546113d890613d93565b80601f016020809104026020016040519081016040528092919081815260200182805461140490613d93565b80156114515780601f1061142657610100808354040283529160200191611451565b820191906000526020600020905b81548152906001019060200180831161143457829003601f168201915b5050505050815260200190600101906113b9565b50505050905090565b61147f611479611b50565b83611c11565b6114be576040517f08c379a00000000000000000000000000000000000000000000000000000000081526004016114b5906138aa565b60405180910390fd5b6114ca84848484612557565b50505050565b60606114db82611b05565b60006006600084815260200190815260200160002080546114fb90613d93565b80601f016020809104026020016040519081016040528092919081815260200182805461152790613d93565b80156115745780601f1061154957610100808354040283529160200191611574565b820191906000526020600020905b81548152906001019060200180831161155757829003601f168201915b5050505050905060006115856125b3565b905060008151141561159b5781925050506115de565b6000825111156115d05780826040516020016115b892919061364d565b604051602081830303815290604052925050506115de565b6115d9846125ca565b925050505b919050565b600b60009054906101000a900473ffffffffffffffffffffffffffffffffffffffff1681565b606080600060606000806008876040516116239190613636565b908152602001604051809103902060405180608001604052908160008201805461164c90613d93565b80601f016020809104026020016040519081016040528092919081815260200182805461167890613d93565b80156116c55780601f1061169a576101008083540402835291602001916116c5565b820191906000526020600020905b8154815290600101906020018083116116a857829003601f168201915b505050505081526020016001820180546116de90613d93565b80601f016020809104026020016040519081016040528092919081815260200182805461170a90613d93565b80156117575780601f1061172c57610100808354040283529160200191611757565b820191906000526020600020905b81548152906001019060200180831161173a57829003601f168201915b5050505050815260200160028201548152602001600382018054806020026020016040519081016040528092919081815260200182805480156117ef57602002820191906000526020600020905b8160009054906101000a900473ffffffffffffffffffffffffffffffffffffffff1673ffffffffffffffffffffffffffffffffffffffff16815260200190600101908083116117a5575b505050505081525050905060098760405161180a9190613636565b908152602001604051809103902060009054906101000a900460ff16611865576040517f08c379a000000000000000000000000000000000000000000000000000000000815260040161185c906138ca565b60405180910390fd5b6000876040516020016118789190613636565b6040516020818303038152906040528051906020012060001c9050600061189e826110c4565b905060006118ab836114d0565b90508360000151846020015183838760400151985098509850985098505050505091939590929450565b6009818051602081018201805184825260208301602085012081835280955050505050506000915054906101000a900460ff1681565b6000600560008473ffffffffffffffffffffffffffffffffffffffff1673ffffffffffffffffffffffffffffffffffffffff16815260200190815260200160002060008373ffffffffffffffffffffffffffffffffffffffff1673ffffffffffffffffffffffffffffffffffffffff16815260200190815260200160002060009054906101000a900460ff16905092915050565b6119a76122a6565b600073ffffffffffffffffffffffffffffffffffffffff168173ffffffffffffffffffffffffffffffffffffffff161415611a17576040517f08c379a0000000000000000000000000000000000000000000000000000000008152600401611a0e9061390a565b60405180910390fd5b611a2081612324565b50565b60007f80ac58cd000000000000000000000000000000000000000000000000000000007bffffffffffffffffffffffffffffffffffffffffffffffffffffffff1916827bffffffffffffffffffffffffffffffffffffffffffffffffffffffff19161480611aee57507f5b5e139f000000000000000000000000000000000000000000000000000000007bffffffffffffffffffffffffffffffffffffffffffffffffffffffff1916827bffffffffffffffffffffffffffffffffffffffffffffffffffffffff1916145b80611afe5750611afd82612632565b5b9050919050565b611b0e8161269c565b611b4d576040517f08c379a0000000000000000000000000000000000000000000000000000000008152600401611b4490613a6a565b60405180910390fd5b50565b600033905090565b816004600083815260200190815260200160002060006101000a81548173ffffffffffffffffffffffffffffffffffffffff021916908373ffffffffffffffffffffffffffffffffffffffff160217905550808273ffffffffffffffffffffffffffffffffffffffff16611bcb836110c4565b73ffffffffffffffffffffffffffffffffffffffff167f8c5be1e5ebec7d5bd14f71427d1e84f3dd0314c0f7b2291e5b200ac8c7c3b92560405160405180910390a45050565b600080611c1d836110c4565b90508073ffffffffffffffffffffffffffffffffffffffff168473ffffffffffffffffffffffffffffffffffffffff161480611c5f5750611c5e818561190b565b5b80611c9d57508373ffffffffffffffffffffffffffffffffffffffff16611c8584610845565b73ffffffffffffffffffffffffffffffffffffffff16145b91505092915050565b8273ffffffffffffffffffffffffffffffffffffffff16611cc6826110c4565b73ffffffffffffffffffffffffffffffffffffffff1614611d1c576040517f08c379a0000000000000000000000000000000000000000000000000000000008152600401611d139061392a565b60405180910390fd5b600073ffffffffffffffffffffffffffffffffffffffff168273ffffffffffffffffffffffffffffffffffffffff161415611d8c576040517f08c379a0000000000000000000000000000000000000000000000000000000008152600401611d839061396a565b60405180910390fd5b611d9983838360016126dd565b8273ffffffffffffffffffffffffffffffffffffffff16611db9826110c4565b73ffffffffffffffffffffffffffffffffffffffff1614611e0f576040517f08c379a0000000000000000000000000000000000000000000000000000000008152600401611e069061392a565b60405180910390fd5b6004600082815260200190815260200160002060006101000a81549073ffffffffffffffffffffffffffffffffffffffff02191690556001600360008573ffffffffffffffffffffffffffffffffffffffff1673ffffffffffffffffffffffffffffffffffffffff168152602001908152602001600020600082825403925050819055506001600360008473ffffffffffffffffffffffffffffffffffffffff1673ffffffffffffffffffffffffffffffffffffffff16815260200190815260200160002060008282540192505081905550816002600083815260200190815260200160002060006101000a81548173ffffffffffffffffffffffffffffffffffffffff021916908373ffffffffffffffffffffffffffffffffffffffff160217905550808273ffffffffffffffffffffffffffffffffffffffff168473ffffffffffffffffffffffffffffffffffffffff167fddf252ad1be2c89b69c2b068fc378daa952ba7f163c4a11628f55a4df523b3ef60405160405180910390a4611f9b83838360016126e3565b505050565b600073ffffffffffffffffffffffffffffffffffffffff168273ffffffffffffffffffffffffffffffffffffffff161415612010576040517f08c379a000000000000000000000000000000000000000000000000000000000815260040161200790613a0a565b60405180910390fd5b6120198161269c565b15612059576040517f08c379a00000000000000000000000000000000000000000000000000000000081526004016120509061394a565b60405180910390fd5b6120676000838360016126dd565b6120708161269c565b156120b0576040517f08c379a00000000000000000000000000000000000000000000000000000000081526004016120a79061394a565b60405180910390fd5b6001600360008473ffffffffffffffffffffffffffffffffffffffff1673ffffffffffffffffffffffffffffffffffffffff16815260200190815260200160002060008282540192505081905550816002600083815260200190815260200160002060006101000a81548173ffffffffffffffffffffffffffffffffffffffff021916908373ffffffffffffffffffffffffffffffffffffffff160217905550808273ffffffffffffffffffffffffffffffffffffffff16600073ffffffffffffffffffffffffffffffffffffffff167fddf252ad1be2c89b69c2b068fc378daa952ba7f163c4a11628f55a4df523b3ef60405160405180910390a46121ba6000838360016126e3565b5050565b6121c78261269c565b612206576040517f08c379a00000000000000000000000000000000000000000000000000000000081526004016121fd906139ea565b60405180910390fd5b8060066000848152602001908152602001600020908051906020019061222d929190612bfe565b507ff8e1a15aba9398e019f0b49df1a4fde98ee17ae345cb5f6b5e2c27f5033e8ce78260405161225d9190613aea565b60405180910390a15050565b60006002600083815260200190815260200160002060009054906101000a900473ffffffffffffffffffffffffffffffffffffffff169050919050565b6122ae611b50565b73ffffffffffffffffffffffffffffffffffffffff166122cc6112c3565b73ffffffffffffffffffffffffffffffffffffffff1614612322576040517f08c379a000000000000000000000000000000000000000000000000000000000815260040161231990613a2a565b60405180910390fd5b565b6000600760009054906101000a900473ffffffffffffffffffffffffffffffffffffffff16905081600760006101000a81548173ffffffffffffffffffffffffffffffffffffffff021916908373ffffffffffffffffffffffffffffffffffffffff1602179055508173ffffffffffffffffffffffffffffffffffffffff168173ffffffffffffffffffffffffffffffffffffffff167f8be0079c531659141344cd1fd0a4f28419497f9722a3daafe3b4186f6b6457e060405160405180910390a35050565b8173ffffffffffffffffffffffffffffffffffffffff168373ffffffffffffffffffffffffffffffffffffffff161415612459576040517f08c379a00000000000000000000000000000000000000000000000000000000081526004016124509061398a565b60405180910390fd5b80600560008573ffffffffffffffffffffffffffffffffffffffff1673ffffffffffffffffffffffffffffffffffffffff16815260200190815260200160002060008473ffffffffffffffffffffffffffffffffffffffff1673ffffffffffffffffffffffffffffffffffffffff16815260200190815260200160002060006101000a81548160ff0219169083151502179055508173ffffffffffffffffffffffffffffffffffffffff168373ffffffffffffffffffffffffffffffffffffffff167f17307eab39ab6107e8899845ad3d59bd9653f200f220920489ca2b5937696c318360405161254a919061371c565b60405180910390a3505050565b612562848484611ca6565b61256e848484846126e9565b6125ad576040517f08c379a00000000000000000000000000000000000000000000000000000000081526004016125a4906138ea565b60405180910390fd5b50505050565b606060405180602001604052806000815250905090565b60606125d582611b05565b60006125df6125b3565b905060008151116125ff576040518060200160405280600081525061262a565b8061260984612880565b60405160200161261a92919061364d565b6040516020818303038152906040525b915050919050565b60007f01ffc9a7000000000000000000000000000000000000000000000000000000007bffffffffffffffffffffffffffffffffffffffffffffffffffffffff1916827bffffffffffffffffffffffffffffffffffffffffffffffffffffffff1916149050919050565b60008073ffffffffffffffffffffffffffffffffffffffff166126be83612269565b73ffffffffffffffffffffffffffffffffffffffff1614159050919050565b50505050565b50505050565b600061270a8473ffffffffffffffffffffffffffffffffffffffff166129a4565b15612873578373ffffffffffffffffffffffffffffffffffffffff1663150b7a02612733611b50565b8786866040518563ffffffff1660e01b8152600401612755949392919061368c565b602060405180830381600087803b15801561276f57600080fd5b505af19250505080156127a057506040513d601f19601f8201168201806040525081019061279d9190613034565b60015b612823573d80600081146127d0576040519150601f19603f3d011682016040523d82523d6000602084013e6127d5565b606091505b5060008151141561281b576040517f08c379a0000000000000000000000000000000000000000000000000000000008152600401612812906138ea565b60405180910390fd5b805181602001fd5b63150b7a0260e01b7bffffffffffffffffffffffffffffffffffffffffffffffffffffffff1916817bffffffffffffffffffffffffffffffffffffffffffffffffffffffff191614915050612878565b600190505b949350505050565b60606000600161288f846129c7565b01905060008167ffffffffffffffff8111156128d4577f4e487b7100000000000000000000000000000000000000000000000000000000600052604160045260246000fd5b6040519080825280601f01601f1916602001820160405280156129065781602001600182028036833780820191505090505b509050600082602001820190505b600115612999578080600190039150507f3031323334353637383961626364656600000000000000000000000000000000600a86061a8153600a8581612983577f4e487b7100000000000000000000000000000000000000000000000000000000600052601260045260246000fd5b049450600085141561299457612999565b612914565b819350505050919050565b6000808273ffffffffffffffffffffffffffffffffffffffff163b119050919050565b600080600090507a184f03e93ff9f4daa797ed6e38ed64bf6a1f0100000000000000008310612a4b577a184f03e93ff9f4daa797ed6e38ed64bf6a1f0100000000000000008381612a41577f4e487b7100000000000000000000000000000000000000000000000000000000600052601260045260246000fd5b0492506040810190505b6d04ee2d6d415b85acef81000000008310612aae576d04ee2d6d415b85acef81000000008381612aa4577f4e487b7100000000000000000000000000000000000000000000000000000000600052601260045260246000fd5b0492506020810190505b662386f26fc100008310612b0357662386f26fc100008381612af9577f4e487b7100000000000000000000000000000000000000000000000000000000600052601260045260246000fd5b0492506010810190505b6305f5e1008310612b52576305f5e1008381612b48577f4e487b7100000000000000000000000000000000000000000000000000000000600052601260045260246000fd5b0492506008810190505b6127108310612b9d576127108381612b93577f4e487b7100000000000000000000000000000000000000000000000000000000600052601260045260246000fd5b0492506004810190505b60648310612be65760648381612bdc577f4e487b7100000000000000000000000000000000000000000000000000000000600052601260045260246000fd5b0492506002810190505b600a8310612bf5576001810190505b80915050919050565b828054612c0a90613d93565b90600052602060002090601f016020900481019282612c2c5760008555612c73565b82601f10612c4557805160ff1916838001178555612c73565b82800160010185558215612c73579182015b82811115612c72578251825591602001919060010190612c57565b5b509050612c809190612d0e565b5090565b828054828255906000526020600020908101928215612cfd579160200282015b82811115612cfc5782518260006101000a81548173ffffffffffffffffffffffffffffffffffffffff021916908373ffffffffffffffffffffffffffffffffffffffff16021790555091602001919060010190612ca4565b5b509050612d0a9190612d0e565b5090565b5b80821115612d27576000816000905550600101612d0f565b5090565b6000612d3e612d3984613b2a565b613b05565b905082815260208101848484011115612d5657600080fd5b612d61848285613d51565b509392505050565b6000612d7c612d7784613b5b565b613b05565b905082815260208101848484011115612d9457600080fd5b612d9f848285613d51565b509392505050565b600081359050612db68161434a565b92915050565b600081359050612dcb81614361565b92915050565b600081359050612de081614378565b92915050565b600081519050612df581614378565b92915050565b600082601f830112612e0c57600080fd5b8135612e1c848260208601612d2b565b91505092915050565b600082601f830112612e3657600080fd5b8135612e46848260208601612d69565b91505092915050565b600081359050612e5e8161438f565b92915050565b600060208284031215612e7657600080fd5b6000612e8484828501612da7565b91505092915050565b60008060408385031215612ea057600080fd5b6000612eae85828601612da7565b9250506020612ebf85828601612da7565b9150509250929050565b600080600060608486031215612ede57600080fd5b6000612eec86828701612da7565b9350506020612efd86828701612da7565b9250506040612f0e86828701612e4f565b9150509250925092565b60008060008060808587031215612f2e57600080fd5b6000612f3c87828801612da7565b9450506020612f4d87828801612da7565b9350506040612f5e87828801612e4f565b925050606085013567ffffffffffffffff811115612f7b57600080fd5b612f8787828801612dfb565b91505092959194509250565b60008060408385031215612fa657600080fd5b6000612fb485828601612da7565b9250506020612fc585828601612dbc565b9150509250929050565b60008060408385031215612fe257600080fd5b6000612ff085828601612da7565b925050602061300185828601612e4f565b9150509250929050565b60006020828403121561301d57600080fd5b600061302b84828501612dd1565b91505092915050565b60006020828403121561304657600080fd5b600061305484828501612de6565b91505092915050565b60006020828403121561306f57600080fd5b600082013567ffffffffffffffff81111561308957600080fd5b61309584828501612e25565b91505092915050565b600080600080600060a086880312156130b657600080fd5b600086013567ffffffffffffffff8111156130d057600080fd5b6130dc88828901612e25565b955050602086013567ffffffffffffffff8111156130f957600080fd5b61310588828901612e25565b945050604061311688828901612da7565b935050606086013567ffffffffffffffff81111561313357600080fd5b61313f88828901612e25565b925050608061315088828901612e4f565b9150509295509295909350565b60006020828403121561316f57600080fd5b600061317d84828501612e4f565b91505092915050565b600061319283836131b2565b60208301905092915050565b60006131aa83836132eb565b905092915050565b6131bb81613cdd565b82525050565b6131ca81613cdd565b82525050565b60006131db82613bac565b6131e58185613bf2565b93506131f083613b8c565b8060005b838110156132215781516132088882613186565b975061321383613bd8565b9250506001810190506131f4565b5085935050505092915050565b600061323982613bb7565b6132438185613c03565b93508360208202850161325585613b9c565b8060005b858110156132915784840389528151613272858261319e565b945061327d83613be5565b925060208a01995050600181019050613259565b50829750879550505050505092915050565b6132ac81613cef565b82525050565b60006132bd82613bc2565b6132c78185613c14565b93506132d7818560208601613d60565b6132e081613eb2565b840191505092915050565b60006132f682613bcd565b6133008185613c25565b9350613310818560208601613d60565b61331981613eb2565b840191505092915050565b600061332f82613bcd565b6133398185613c36565b9350613349818560208601613d60565b61335281613eb2565b840191505092915050565b600061336882613bcd565b6133728185613c47565b9350613382818560208601613d60565b80840191505092915050565b600061339b602d83613c36565b91506133a682613ec3565b604082019050919050565b60006133be601283613c36565b91506133c982613f12565b602082019050919050565b60006133e1603283613c36565b91506133ec82613f3b565b604082019050919050565b6000613404602683613c36565b915061340f82613f8a565b604082019050919050565b6000613427602583613c36565b915061343282613fd9565b604082019050919050565b600061344a601c83613c36565b915061345582614028565b602082019050919050565b600061346d602483613c36565b915061347882614051565b604082019050919050565b6000613490601983613c36565b915061349b826140a0565b602082019050919050565b60006134b3601883613c36565b91506134be826140c9565b602082019050919050565b60006134d6602983613c36565b91506134e1826140f2565b604082019050919050565b60006134f9602e83613c36565b915061350482614141565b604082019050919050565b600061351c602083613c36565b915061352782614190565b602082019050919050565b600061353f602083613c36565b915061354a826141b9565b602082019050919050565b6000613562602283613c36565b915061356d826141e2565b604082019050919050565b6000613585601883613c36565b915061359082614231565b602082019050919050565b60006135a8602083613c36565b91506135b38261425a565b602082019050919050565b60006135cb602183613c36565b91506135d682614283565b604082019050919050565b60006135ee603d83613c36565b91506135f9826142d2565b604082019050919050565b6000613611601683613c36565b915061361c82614321565b602082019050919050565b61363081613d47565b82525050565b6000613642828461335d565b915081905092915050565b6000613659828561335d565b9150613665828461335d565b91508190509392505050565b600060208201905061368660008301846131c1565b92915050565b60006080820190506136a160008301876131c1565b6136ae60208301866131c1565b6136bb6040830185613627565b81810360608301526136cd81846132b2565b905095945050505050565b600060208201905081810360008301526136f281846131d0565b905092915050565b60006020820190508181036000830152613714818461322e565b905092915050565b600060208201905061373160008301846132a3565b92915050565b600060208201905081810360008301526137518184613324565b905092915050565b600060808201905081810360008301526137738187613324565b905061378260208301866131c1565b61378f60408301856131c1565b61379c6060830184613627565b95945050505050565b600060a08201905081810360008301526137bf8188613324565b905081810360208301526137d38187613324565b90506137e260408301866131c1565b81810360608301526137f48185613324565b90506138036080830184613627565b9695505050505050565b600060808201905081810360008301526138278186613324565b9050818103602083015261383b8185613324565b9050818103604083015261384e81613604565b905061385d60608301846131c1565b949350505050565b6000606082019050818103600083015261387f8186613324565b905081810360208301526138938185613324565b90506138a26040830184613627565b949350505050565b600060208201905081810360008301526138c38161338e565b9050919050565b600060208201905081810360008301526138e3816133b1565b9050919050565b60006020820190508181036000830152613903816133d4565b9050919050565b60006020820190508181036000830152613923816133f7565b9050919050565b600060208201905081810360008301526139438161341a565b9050919050565b600060208201905081810360008301526139638161343d565b9050919050565b6000602082019050818103600083015261398381613460565b9050919050565b600060208201905081810360008301526139a381613483565b9050919050565b600060208201905081810360008301526139c3816134a6565b9050919050565b600060208201905081810360008301526139e3816134c9565b9050919050565b60006020820190508181036000830152613a03816134ec565b9050919050565b60006020820190508181036000830152613a238161350f565b9050919050565b60006020820190508181036000830152613a4381613532565b9050919050565b60006020820190508181036000830152613a6381613555565b9050919050565b60006020820190508181036000830152613a8381613578565b9050919050565b60006020820190508181036000830152613aa38161359b565b9050919050565b60006020820190508181036000830152613ac3816135be565b9050919050565b60006020820190508181036000830152613ae3816135e1565b9050919050565b6000602082019050613aff6000830184613627565b92915050565b6000613b0f613b20565b9050613b1b8282613dc5565b919050565b6000604051905090565b600067ffffffffffffffff821115613b4557613b44613e83565b5b613b4e82613eb2565b9050602081019050919050565b600067ffffffffffffffff821115613b7657613b75613e83565b5b613b7f82613eb2565b9050602081019050919050565b6000819050602082019050919050565b6000819050602082019050919050565b600081519050919050565b600081519050919050565b600081519050919050565b600081519050919050565b6000602082019050919050565b6000602082019050919050565b600082825260208201905092915050565b600082825260208201905092915050565b600082825260208201905092915050565b600082825260208201905092915050565b600082825260208201905092915050565b600081905092915050565b6000613c5d82613d47565b9150613c6883613d47565b925082613c7857613c77613e25565b5b828204905092915050565b6000613c8e82613d47565b9150613c9983613d47565b9250817fffffffffffffffffffffffffffffffffffffffffffffffffffffffffffffffff0483118215151615613cd257613cd1613df6565b5b828202905092915050565b6000613ce882613d27565b9050919050565b60008115159050919050565b60007fffffffff0000000000000000000000000000000000000000000000000000000082169050919050565b600073ffffffffffffffffffffffffffffffffffffffff82169050919050565b6000819050919050565b82818337600083830152505050565b60005b83811015613d7e578082015181840152602081019050613d63565b83811115613d8d576000848401525b50505050565b60006002820490506001821680613dab57607f821691505b60208210811415613dbf57613dbe613e54565b5b50919050565b613dce82613eb2565b810181811067ffffffffffffffff82111715613ded57613dec613e83565b5b80604052505050565b7f4e487b7100000000000000000000000000000000000000000000000000000000600052601160045260246000fd5b7f4e487b7100000000000000000000000000000000000000000000000000000000600052601260045260246000fd5b7f4e487b7100000000000000000000000000000000000000000000000000000000600052602260045260246000fd5b7f4e487b7100000000000000000000000000000000000000000000000000000000600052604160045260246000fd5b6000601f19601f8301169050919050565b7f4552433732313a2063616c6c6572206973206e6f7420746f6b656e206f776e6560008201527f72206f7220617070726f76656400000000000000000000000000000000000000602082015250565b7f43617220646f6573206e6f742065786973740000000000000000000000000000600082015250565b7f4552433732313a207472616e7366657220746f206e6f6e20455243373231526560008201527f63656976657220696d706c656d656e7465720000000000000000000000000000602082015250565b7f4f776e61626c653a206e6577206f776e657220697320746865207a65726f206160008201527f6464726573730000000000000000000000000000000000000000000000000000602082015250565b7f4552433732313a207472616e736665722066726f6d20696e636f72726563742060008201527f6f776e6572000000000000000000000000000000000000000000000000000000602082015250565b7f4552433732313a20746f6b656e20616c7265616479206d696e74656400000000600082015250565b7f4552433732313a207472616e7366657220746f20746865207a65726f2061646460008201527f7265737300000000000000000000000000000000000000000000000000000000602082015250565b7f4552433732313a20617070726f766520746f2063616c6c657200000000000000600082015250565b7f596f7520616c7265616479206f776e2074686973206361720000000000000000600082015250565b7f4552433732313a2061646472657373207a65726f206973206e6f74206120766160008201527f6c6964206f776e65720000000000000000000000000000000000000000000000602082015250565b7f45524337323155524953746f726167653a2055524920736574206f66206e6f6e60008201527f6578697374656e7420746f6b656e000000000000000000000000000000000000602082015250565b7f4552433732313a206d696e7420746f20746865207a65726f2061646472657373600082015250565b7f4f776e61626c653a2063616c6c6572206973206e6f7420746865206f776e6572600082015250565b7f496e73756666696369656e74204554482073656e7420666f722070757263686160008201527f7365000000000000000000000000000000000000000000000000000000000000602082015250565b7f4552433732313a20696e76616c696420746f6b656e2049440000000000000000600082015250565b7f436172207769746820746869732056494e20616c726561647920657869737473600082015250565b7f4552433732313a20617070726f76616c20746f2063757272656e74206f776e6560008201527f7200000000000000000000000000000000000000000000000000000000000000602082015250565b7f4552433732313a20617070726f76652063616c6c6572206973206e6f7420746f60008201527f6b656e206f776e6572206f7220617070726f76656420666f7220616c6c000000602082015250565b7f436572746966696564204d616e75666163747572657200000000000000000000600082015250565b61435381613cdd565b811461435e57600080fd5b50565b61436a81613cef565b811461437557600080fd5b50565b61438181613cfb565b811461438c57600080fd5b50565b61439881613d47565b81146143a357600080fd5b5056fea264697066735822122059ae5747505de88e10f014dfb207d5416a365f190228ce689bb5ada274ae58f264736f6c63430008010033",
  "immutableReferences": {},
  "source": "// SPDX-License-Identifier: MIT\npragma solidity ^0.8.0;\n\nimport \"@openzeppelin/contracts/token/ERC721/ERC721.sol\";\nimport \"@openzeppelin/contracts/token/ERC721/extensions/ERC721URIStorage.sol\";\nimport \"@openzeppelin/contracts/access/Ownable.sol\";\n\ncontract CarFactory is ERC721URIStorage, Ownable {\n    // Structure to represent a Car\n    struct Car {\n        string vin;\n        string model;\n        uint256 price;\n        address[] ownershipHistory; // Array to store the history of car owners\n    }\n\n    // Mapping to store each Car by its VIN (unique identifier)\n    mapping(string => Car) public cars;\n    mapping(string => bool) public vinExists;\n\n    // Array to store all VINs for easy retrieval\n    string[] public allCarVINs;\n\n    // Events triggering\n    event CarCreated(string vin, string model, string manufacturer, address owner);\n    event CarBought(string vin, address seller, address buyer, uint256 priceInETH);\n\n    address public deployer;\n\n    constructor() ERC721(\"CarNFT\", \"CNFT\") Ownable() {\n        deployer = msg.sender;\n    }\n\n    // Create a new car and mint an NFT to represent it\n    function createCar(\n        string memory _vin,\n        string memory _model,\n        address _owner,\n        string memory _tokenURI,\n        uint256 _price\n    ) public{\n        require(!vinExists[_vin], \"Car with this VIN already exists\");\n\n        // Create a memory array for the initial ownership history\n        address[] memory addresses = new address[](1);\n        addresses[0] = _owner; \n\n        // Register the car in the cars mapping\n        cars[_vin] = Car({\n            vin: _vin,\n            model: _model,\n            price: _price,\n            ownershipHistory: addresses\n        });\n        vinExists[_vin] = true;\n\n        // Add VIN to the allCarVINs array\n        allCarVINs.push(_vin);\n\n        // Mint an NFT that represents the car\n        uint256 tokenId = uint256(keccak256(abi.encodePacked(_vin))); // Generate token ID from the VIN\n        _mint(_owner, tokenId);\n        _setTokenURI(tokenId, _tokenURI);  // Set metadata (optional)\n\n        emit CarCreated(_vin, _model, \"Certified Manufacturer\", _owner);\n    }\n\n    function buyCar(string memory _vin) public payable {\n        uint256 tokenId = uint256(keccak256(abi.encodePacked(_vin)));\n        require(ownerOf(tokenId) != msg.sender, \"You already own this car\");\n\n        // Hardcoded exchange rate for testing\n        uint256 usdToEthRate = 3400 * 10**6; \n\n        // Fetch the price from the car struct\n        uint256 priceInUSD = cars[_vin].price; \n\n        // Calculate price in ETH\n        uint256 priceInETH = (priceInUSD * 1 ether) / usdToEthRate;\n\n        require(msg.value >= priceInETH, \"Insufficient ETH sent for purchase\");\n        address previousOwner = ownerOf(tokenId);\n\n        // Transfer ETH to the seller\n        _transfer(previousOwner, msg.sender, tokenId);\n        payable(previousOwner).transfer(priceInETH);\n  \n        // Update ownership history\n        cars[_vin].ownershipHistory.push(msg.sender);\n\n\n        emit CarBought(_vin, previousOwner, msg.sender, priceInETH);\n    }\n\n    // Get car details by VIN\n    function getCarDetails(string memory _vin) public view returns (string memory, string memory, address, string memory, uint256) {\n        Car memory car = cars[_vin];\n        require(vinExists[_vin], \"Car does not exist\");\n\n        uint256 tokenId = uint256(keccak256(abi.encodePacked(_vin)));\n        address owner = ownerOf(tokenId);\n        string memory tokenURI = tokenURI(tokenId);\n        return (car.vin, car.model, owner, tokenURI, car.price);\n    }\n\n    // Get all car vins\n    function getAllCars() public view returns (string[] memory) {\n        return allCarVINs;\n    }\n\n    // Get the ownership history of the car by VIN\n    function getOwnershipHistory(string memory _vin) public view returns (address[] memory) {\n        require(vinExists[_vin], \"Car does not exist\");\n        return cars[_vin].ownershipHistory;\n    }\n}",
  "sourcePath": "/home/master/car-sale-dapp/car-sale-blockchain/contracts/CarFactory.sol",
  "compiler": {
    "name": "solc",
    "version": "0.8.1+commit.df193b15.Emscripten.clang"
  },
  "schemaVersion": "3.4.16",
  "updatedAt": "2024-10-26T19:51:33.687Z",
  "networkType": "ethereum",
  "devdoc": {
    "kind": "dev",
    "methods": {
      "approve(address,uint256)": {
        "details": "See {IERC721-approve}."
      },
      "balanceOf(address)": {
        "details": "See {IERC721-balanceOf}."
      },
      "getApproved(uint256)": {
        "details": "See {IERC721-getApproved}."
      },
      "isApprovedForAll(address,address)": {
        "details": "See {IERC721-isApprovedForAll}."
      },
      "name()": {
        "details": "See {IERC721Metadata-name}."
      },
      "owner()": {
        "details": "Returns the address of the current owner."
      },
      "ownerOf(uint256)": {
        "details": "See {IERC721-ownerOf}."
      },
      "renounceOwnership()": {
        "details": "Leaves the contract without owner. It will not be possible to call `onlyOwner` functions. Can only be called by the current owner. NOTE: Renouncing ownership will leave the contract without an owner, thereby disabling any functionality that is only available to the owner."
      },
      "safeTransferFrom(address,address,uint256)": {
        "details": "See {IERC721-safeTransferFrom}."
      },
      "safeTransferFrom(address,address,uint256,bytes)": {
        "details": "See {IERC721-safeTransferFrom}."
      },
      "setApprovalForAll(address,bool)": {
        "details": "See {IERC721-setApprovalForAll}."
      },
      "supportsInterface(bytes4)": {
        "details": "See {IERC165-supportsInterface}"
      },
      "symbol()": {
        "details": "See {IERC721Metadata-symbol}."
      },
      "tokenURI(uint256)": {
        "details": "See {IERC721Metadata-tokenURI}."
      },
      "transferFrom(address,address,uint256)": {
        "details": "See {IERC721-transferFrom}."
      },
      "transferOwnership(address)": {
        "details": "Transfers ownership of the contract to a new account (`newOwner`). Can only be called by the current owner."
      }
    },
    "version": 1
  },
  "userdoc": {
    "kind": "user",
    "methods": {},
    "version": 1
  }
}